:100000000C9446000C945D000C945D000C945D0013
:100010000C945D000C945D000C945D000C945D00EC
:100020000C945D000C945D000C945D000C945D00DC
:100030000C945D000C945D000C945D000C945D00CC
:100040000C945D000C945D000C945D000C945D00BC
:100050000C945D000C945D000C945D000C945D00AC
:100060000C945D000C945D000C945D000C945D009C
:100070000C945D000C945D000C945D000C945D008C
:100080000C945D000C945D000C945D0011241FBE67
:10009000CFEFD0E4DEBFCDBF11E0A0E0B1E0E2E100
:1000A000F1E000E00BBF02C007900D92AE30B10747
:1000B000D9F70E9470000C9487000C940000CF9335
:1000C000C82F8A3019F48DE00E945F009091C00023
:1000D00095FFFCCFC093C60080E090E0CF910895DB
:1000E00011B88FEF82B914B885B987B918B880E014
:1000F00030E020B193B107C020FD3F5F90FD3F5F2E
:10010000269596958F5F8830B8F338B9F2CFF8947A
:02011000FFCF1F
:0E01120000000002000000005F00000000007E
:00000001FF
