:100000000C9446000C945D000C945D000C945D0013
:100010000C945D000C945D000C945D000C945D00EC
:100020000C945D000C945D000C945D000C945D00DC
:100030000C945D000C945D000C945D000C945D00CC
:100040000C945D000C945D000C945D000C945D00BC
:100050000C945D000C945D000C945D000C945D00AC
:100060000C945D000C945D000C945D000C945D009C
:100070000C945D000C945D000C945D000C945D008C
:100080000C945D000C945D000C945D0011241FBE67
:10009000CFEFD0E4DEBFCDBF11E0A0E0B1E0E4E4FB
:1000A000F1E000E00BBF02C007900D92AE30B10747
:1000B000D9F70E9470000C94A0000C940000CF931C
:1000C000C82F8A3019F48DE00E945F009091C00023
:1000D00095FFFCCFC093C60080E090E0CF910895DB
:1000E00011B88FEF82B987B918B820E080B18F704E
:1000F00090B192959F70833098F03DEF380F323079
:1001000088F03BEF380F323078F039EF380F33306A
:1001100068F036EF380F333058F08D3058F40BC09C
:1001200020E609C020E707C028E305C02CE303C090
:100130002EE301C02FE3933009F4205828B9D6CF1D
:04014000F894FFCF61
:0E01440000000002000000005F00000000004C
:00000001FF
