:100000000C9446000C945D000C945D000C945D0013
:100010000C945D000C945D000C945D000C945D00EC
:100020000C945D000C945D000C945D000C945D00DC
:100030000C945D000C945D000C945D000C945D00CC
:100040000C945D000C945D000C945D000C945D00BC
:100050000C945D000C945D000C945D000C945D00AC
:100060000C945D000C945D000C945D000C945D009C
:100070000C945D000C945D000C945D000C945D008C
:100080000C945D000C945D000C945D0011241FBE67
:10009000CFEFD0E4DEBFCDBF11E0A0E0B1E0E6E3FA
:1000A000F1E000E00BBF02C007900D92AE30B10747
:1000B000D9F70E9470000C9499000C940000CF9323
:1000C000C82F8A3019F48DE00E945F009091C00023
:1000D00095FFFCCFC093C60080E090E0CF910895DB
:1000E00011B88FEF82B987B918B890E080B183302A
:1000F00098F02DEF280F223088F02BEF280F2230B8
:1001000078F029EF280F233068F026EF280F2330EE
:1001100058F08D3058F40BC090E609C090E707C046
:1001200098E305C09CE303C09EE301C09FE398B938
:06013000DDCFF894FFCFC3
:0E01360000000002000000005F00000000005A
:00000001FF
